:020000040000FA
:0600000020EF0CF01200DD
:0A0006000100621800006000000015
:040010002B000000C1
:0C001400000000000000000000000000E0
:1000200000000000000000000000000000000000D0
:1000300000001200D9CFE6FFE1CFD9FF020EE12682
:10004000DE6ADD6ADECF14F0DDCF15F0D8901550F2
:1000500004E6780E145C000E15580AE2010EE66EF6
:10006000E3EC0BF0E552DF2A010E01E3DB2AEAD7CD
:10007000020EE15C02E2E16AE552E16EE552E7CF91
:10008000D9FF1200C7DF8482C5DF84921200D9CF66
:10009000E6FFE1CFD9FF0B0EE126D9CFE9FFDACF9A
:1000A000EAFF300EEE6E310EEE6E320EEE6E330E55
:1000B000EE6E340EEE6E350EEE6E360EEE6E370EC2
:1000C000EE6E380EEE6E390EEE6EEE6AD9CF14F08B
:1000D000DACF15F0FD0EDB501424E96EFE0EDB5076
:1000E0001520EA6EEF50146E0B0EE15C03E200D0B7
:1000F000E16AE552E16E1450E552E7CFD9FF1200F4
:100100008484849087DF848285DF83AE05D08492E7
:100110008494010E05D004D084928494000E00D003
:100120001200D9CFE6FFE1CFD9FF956AFE0EDB5072
:10013000836E84908494A6DF84906CDF9568E5528A
:10014000E7CFD9FF1200D9CFE6FFE1CFD9FF090EE3
:10015000E126300EDF6EDE52DD6EF36E020EF3CF5F
:10016000DBFF380EF36E030EF3CFDBFF0F0EF36EE3
:10017000040EF3CFDBFF060EF36E050EF3CFDBFFAD
:10018000010EF36E060EF3CFDBFF8492849084940D
:100190000F0EC16E966A956A070EDB6AF36EDBCFAF
:1001A000F4FFF350F45C17E2D9CF14F0DACF15F076
:1001B000070EDB500F011424E96E000E1520EA6EC5
:1001C000EF50836E5FDF010EE66EE3EC0BF0E5525D
:1001D000070EDB2AE3D79568090EE15C02E2E16ACB
:1001E000E552E16EE552E7CFD9FF1200D9CFE6FF25
:1001F000E1CFD9FF956AFE0EDB50836E8480849434
:1002000041DF849007DF9568E552E7CFD9FF120000
:10021000D9CFE6FFE1CFD9FFFD0EDBCFE9FFFE0E20
:10022000DBCFEAFFEF5014E06BDF000901E0FCD701
:10023000FD0EDBCFE9FFFE0EDBCFEAFFEF50E66EEF
:10024000D5DFE552FD0EDB2AFE0E01E3DB2AE4D703
:1002500057DF000901E0FCD700D0E552E7CFD9FF16
:100260001200D9CFE6FFE1CFD9FFFD0EDBCFF6FFBD
:10027000FE0EDBCFF7FF0800F55015E041DF000967
:1002800001E0FCD7FD0EDBCFF6FFFE0EDBCFF7FF64
:100290000800F550E66EAADFE552FD0EDB2AFE0EE1
:1002A00001E3DB2AE2D72CDF000901E0FCD700D014
:1002B000E552E7CFD9FF1200D9CFE6FFE1CFD9FF52
:1002C000010EE66E2EDFE5521BDF000901E0FCD7D0
:1002D000FD0EDBCFF6FFFE0EDBCFF7FF0800F5507B
:1002E00015E00EDF000901E0FCD7FD0EDBCFF6FFC5
:1002F000FE0EDBCFF7FF0800F550E66E77DFE55224
:10030000FD0EDB2AFE0E01E3DB2AE2D7F9DE00094F
:1003100001E0FCD700D0E552E7CFD9FF1200D9CFDA
:10032000E6FFE1CFD9FFC00EE66EFBDEE552E8DE68
:10033000000901E0FCD7FD0EDBCFF6FFFE0EDBCFA0
:10034000F7FF0800F55015E0DBDE000901E0FCD7FF
:10035000FD0EDBCFF6FFFE0EDBCFF7FF0800F550FA
:10036000E66E44DFE552FD0EDB2AFE0E01E3DB2ADA
:10037000E2D7C6DE000901E0FCD700D0E552E7CFA6
:10038000D9FF1200F00E936E2EEC0CF0F70E816E7A
:10039000000081B80CD000018A0503E1470EACD003
:1003A00006D0936A0001010E8A6F310EA5D081BA82
:1003B0000CD000018A0503E1470E9ED006D0936A57
:1003C0000001010E8A6F340E97D081BC0CD0000161
:1003D0008A0503E1470E90D006D0936A0001010E12
:1003E0008A6F370E89D081BE0CD000018A0503E1E7
:1003F000470E82D006D0936A0001010E8A6F2A0E42
:100400007BD0FB0E816E000081B80CD000018A0504
:1004100003E1470E71D006D0936A0001010E8A6F86
:10042000320E6AD081BA0CD000018A0503E1470E72
:1004300063D006D0936A0001010E8A6F350E5CD03E
:1004400081BC0CD000018A0503E1470E55D006D0CF
:10045000936A0001010E8A6F380E4ED081BE0CD017
:1004600000018A0503E1470E47D006D0936A0001D8
:10047000010E8A6F300E40D0FD0E816E000081B8F3
:100480000CD000018A0503E1470E36D006D0936AEE
:100490000001010E8A6F330E2FD081BA0CD00001FB
:1004A0008A0503E1470E28D006D0936A0001010EA9
:1004B0008A6F360E21D081BC0CD000018A0503E181
:1004C000470E1AD006D0936A0001010E8A6F390ECA
:1004D00013D081BE0CD000018A0503E1470E0CD079
:1004E00006D0936A0001010E8A6F230E05D0936A2D
:1004F00000018A6B470E00D01200926A936A946AD8
:10050000956A966A0F0EC16E806A816A826A836AF2
:10051000846A1200948E948C240EAC6E900EAB6E96
:10052000B86A330EAF6E1200D9CFE6FFE1CFD9FF24
:10053000FE0EDB50AD6EACB2FED7E552E7CFD9FF71
:100540001200D9CFE6FFE1CFD9FFFD0EDBCFF6FFDA
:10055000FE0EDBCFF7FF0800F55011E09EA8FED796
:10056000FD0EDBCFF6FFFE0EDBCFF7FF0800F550E8
:10057000AD6EFD0EDB2AFE0E01E3DB2AE6D7E55267
:10058000E7CFD9FF1200D9CFE6FFE1CFD9FFFD0EAB
:10059000DBCFE9FFFE0EDBCFEAFFEF5010E09EA8B5
:1005A000FED7FD0EDBCFE9FFFE0EDBCFEAFFEF50FB
:1005B000AD6EFD0EDB2AFE0E01E3DB2AE8D7E55225
:1005C000E7CFD9FF1200D9CFE6FFE1CFD9FF070E61
:1005D000E126010EF36E030EF3CFDBFF040EDB6AA0
:1005E000050EDB6A060EDB6ADE6ADD6ADECF14F01A
:1005F000DDCF15F0D890155004E6040E145C000E03
:10060000155849E2010EDF5206E0DFCFF3FFE8465E
:10061000FE0BF306FCE1E76E020EE7CFDBFFFE0EFA
:10062000DBCFE6FF020EDB50E552E714DF5206E0B7
:10063000DFCFF3FFE8327F0BF306FCE1166E176A9B
:1006400016BE176816C008F017C009F0030EDBCFFE
:100650000DF0040EDBCF0EF067EC0BF006C014F0CB
:1006600007C015F0D950050FE96EDACFEAFF145034
:10067000EE261550ED22D950030FE96EDACFEAFFCE
:10068000010ED890EE36ED36E806FBE1DF2A010ECA
:1006900001E3DB2AABD7050EDBCF14F0060EDBCF70
:1006A00015F014C0F3FF15C0F4FF070EE15C03E280
:1006B00000D0E16AE552E16EE552E7CFD9FF1200C2
:1006C000D9CFE6FFE1CFD9FF040EE126DF6A8280B1
:1006D0009494020EDB6A030EDB6A020EDBCF14F089
:1006E000030EDBCF15F0153404E214500708000E9A
:1006F00015542FE382920000010EF36E020EDB50C0
:1007000004E0D890F336E806FCE1F350E76E010E02
:10071000E7CFDBFF020EDBCF14F0FE0EDBCFE6FFF0
:10072000010EDB50E552E71414C0E7FFE75204E086
:10073000E8427F0BE706FCE1E8B08284E8A08294FF
:10074000000082820000020EDB2A030E01E3DB2A96
:10075000C4D79484020EDB6A030EDB6A020EDBCF81
:1007600014F0030EDBCF15F0153404E21450070823
:10077000000E15541EE38292000082A412D0010ED6
:10078000F36E020EDB5004E0D890F336E806FCE18D
:10079000F350E76E010EE7CFDBFF010EDB50DF10F9
:1007A000DF6E82820000020EDB2A030E01E3DB2AE9
:1007B000D5D782909494DF5000D0146E040EE15C83
:1007C00002E2E16AE552E16E1450E552E7CFD9FF4B
:1007D0001200D9CFE6FFE1CFD9FF1B0EE126300E84
:1007E000DF6ED950010FE96EDACFEAFF480EEE6EE8
:1007F000EE6E3A0EEE6E4D0EEE6EEE6E200EEE6E5C
:10080000440EEE6EEE6E2F0EEE6E6D0EEE6EEE6E12
:100810002F0EEE6E410EEE6EEE6EEE6A850EF36EEC
:10082000110EF3CFDBFF830EF36E120EF3CFDBFF5F
:10083000870EF36E130EF3CFDBFF890EF36E140EEB
:10084000F3CFDBFF8D0EF36E150EF3CFDBFF170E2C
:10085000DB6A180EDB6A190EDB6A1A0EDB6AD950E6
:10086000110F146EDACF15F0170EDB501424E96E59
:10087000180EDB501520EA6EEF50E66E21DFE552D0
:10088000E76E160EE7CFDBFFDB50DF14E8380F0B07
:10089000E76E100EE7CFDBFFDBCFE6FF94DEE5521D
:1008A000F3CF18F0F4CF19F018C0E6FF19C0E6FF37
:1008B00047EC00F0E552E552E66ED950010F146E98
:1008C000DACF15F0190EDBCF16F0DB2A1A0EDBCFCC
:1008D00017F001E3DB2A14501624E96E1550172097
:1008E000EA6EE552E750EF6E0F0EDF6E160EDB502C
:1008F000DF14E76E100EE7CFDBFFDBCFE6FF63DE32
:10090000E552F3CF18F0F4CF19F018C0E6FF19C084
:10091000E6FF47EC00F0E552E552E66ED950010FD4
:10092000146EDACF15F0190EDBCF16F0DB2A1A0E93
:10093000DBCF17F001E3DB2A14501624E96E1550C3
:100940001720EA6EE552E750EF6E190EDB2A1A0EF9
:1009500001E3DB2A010EF36E170EF3CFDBFF180E57
:10096000DB6A170EDBCF14F0180EDBCF15F0D89032
:10097000155004E6050E145C000E155801E383D0F3
:10098000F00EDF6ED950110F146EDACF15F0170E7E
:10099000DB501424E96E180EDB501520EA6EEF5080
:1009A000E66E8EDEE552E76E160EE7CFDBFFDB501C
:1009B000DF14E8380F0BE76E100EE7CFDBFFDBCF5D
:1009C000E6FF01DEE552F3CF18F0F4CF19F018C0BE
:1009D000E6FF19C0E6FF47EC00F0E552E552E66E8F
:1009E000D950010F146EDACF15F0190EDBCF16F0C7
:1009F000DB2A1A0EDBCF17F001E3DB2A1450162492
:100A0000E96E15501720EA6EE552E750EF6E0F0EB3
:100A1000DF6E160EDB50DF14E76E100EE7CFDBFF44
:100A2000DBCFE6FFD0DDE552F3CF18F0F4CF19F0BD
:100A300018C0E6FF19C0E6FF47EC00F0E552E552AA
:100A4000E66ED950010F146EDACF15F0190EDBCF18
:100A500016F0DB2A1A0EDBCF17F001E3DB2A145065
:100A60001624E96E15501720EA6EE552E750EF6E36
:100A7000190EDB2A1A0E01E3DB2A170EDB2A180EE9
:100A800001E3DB2A6ED7D950010FE66E000EDA20A3
:100A9000E66E79DDE552E5521B0EE15C02E2E16AA9
:100AA000E552E16EE552E7CFD9FF1200D9CFE6FF5C
:100AB000E1CFD9FF090EE126050EDB6A060EDB6ADF
:100AC000010EF36E070EF3CFDBFF080EDB6A710E2B
:100AD000E66E160EE66E5CEC01F0E552E5526C0E29
:100AE000E66E160EE66E1BDCE552E552050EDBCF18
:100AF00014F0060EDBCF15F0D890155004E6020E68
:100B0000145C000E155822E23DDCE76E030EE7CFC1
:100B1000DBFFDB50470819E0D9CF14F0DACF15F02E
:100B2000050EDB501424E96E060EDB501520EA6E2C
:100B3000030EDBCFEFFFDBCFE6FFF6EC00F0E55274
:100B4000050EDB2A060E01E3DB2AD0D7030EDB6A93
:100B50005F0EE66E160EE66E5CEC01F0E552E552B5
:100B6000D9CFE6FFDACFE6FF08EC01F0E552E55217
:100B70004E0EE66E160EE66E8FEC01F0E552E55273
:100B8000C2EC01F0E76E040EE7CFDBFFDB5031086B
:100B900004E0040EDB50320817E1040EDB5032088B
:100BA00014E1410EE66E160EE66E5CEC01F0E552C5
:100BB000E552300EE66E160EE66E8FEC01F0E55251
:100BC000E5521AEC00F086D0DBD7070EDBCF14F02D
:100BD000080EDBCF15F0D890155004E6050E145C16
:100BE000000E155834E2070EDBCFE9FF080EDBCF0D
:100BF000EAFF030ED890E936EA36E806FBE1620E1A
:100C0000E926000EEA22EF50DF5C1BE1070EDBCF86
:100C1000E9FF080EDBCFEAFF030ED890E936EA368B
:100C2000E806FBE1620EE926000EEA22010EE92643
:100C3000000EEA22EF50F36E010EDB50F35C01E18F
:100C400006D0070EDB2A080E01E3DB2ABED7070E0B
:100C5000DBCFE9FF080EDBCFEAFF030ED890E936C1
:100C6000EA36E806FBE1620EE926000EEA22660E8D
:100C7000EF6E070EDBCFE9FF080EDBCFEAFF030EB6
:100C8000D890E936EA36E806FBE1620EE926000E66
:100C9000EA22010EE926000EEA22660EEF6E260E0B
:100CA000E66E160EE66E5CEC01F0E552E552D9CF29
:100CB000E6FFDACFE6FF08EC01F0E552E552160E4A
:100CC000E66E160EE66E8FEC01F0E552E5521AEC78
:100CD00000F000D0090EE15C02E2E16AE552E16E4B
:100CE000E552E7CFD9FF1200D9CFE6FFE1CFD9FF18
:100CF000120EE126010EF36E0A0EF3CFDBFF0B0E90
:100D0000DB6A0A0EDBCFE9FF0B0EDBCFEAFF030E37
:100D1000D890E936EA36E806FBE1620EE926000ED5
:100D2000EA22EF50660814E00A0EDBCF14F00B0E37
:100D3000DBCF15F0D890155004E6050E145C000EBC
:100D4000155806E20A0EDB2A0B0E01E3DB2AD9D77F
:100D50000A0EDBCF14F00B0EDBCF15F0D890155038
:100D600004E6050E145C000E155813E3050EE66E3E
:100D7000160EE66E5CEC01F0E552E552F40EE66EFE
:100D8000150EE66E8FEC01F0E552E5521AEC00F01C
:100D9000ADD10A0E146E156A60C008F061C009F08A
:100DA00014C00DF015C00EF041EC0BF0080E08C099
:100DB000DBFF090E09C0DBFF080EDBCFE6FF090EE3
:100DC000DBCFE6FF47EC00F0E552E552DF6E60C096
:100DD00014F061C015F00A0E0D6E0E6A14C008F012
:100DE00015C009F041EC0BF004C014F005C015F07B
:100DF000080E14C0DBFF090E15C0DBFF080EDBCFA9
:100E0000E6FF090EDBCFE6FF47EC00F0E552E552C6
:100E1000E76E010EE7CFDBFF020EDB6A080EDB6A2E
:100E2000090EDB6AEA0EE66E150EE66E5CEC01F06A
:100E3000E552E552D9CFE6FFDACFE6FF08EC01F044
:100E4000E552E552E20EE66E150EE66E8FEC01F00D
:100E5000E552E5520A0EDB6A0B0EDB6A0A0EDBCFA7
:100E600014F00B0EDBCF15F0D890155004E6040EED
:100E7000145C000E155824E2C2EC01F0E76E0C0E73
:100E8000E7CFDBFFDB5047081AE0D950030F146EA1
:100E9000DACF15F00A0EDB501424E96E0B0EDB508E
:100EA0001520EA6E0C0EDBCFEFFF2A0EE66EF6EC95
:100EB00000F0E5520A0EDB2A0B0E01E3DB2ACED747
:100EC000D80EE66E150EE66E5CEC01F0E552E552CA
:100ED000E20EE66E150EE66E8FEC01F0E552E5527D
:100EE0000A0EDB6A0B0EDB6A0A0EDBCF14F00B0E68
:100EF000DBCF15F0D890155004E6040E145C000EFC
:100F0000155824E2C2EC01F0E76E0C0EE7CFDBFFD0
:100F1000DB5047081AE0D9500D0F146EDACF15F0E8
:100F20000A0EDB501424E96E0B0EDB501520EA6E1E
:100F30000C0EDBCFEFFF2A0EE66EF6EC00F0E5526A
:100F40000A0EDB2A0B0E01E3DB2ACED70D0EDB5097
:100F5000F36E030EDB50F35C15E10E0EDB50F36E07
:100F6000040EDB50F35C0EE1100EDB50F36E050E49
:100F7000DB50F35C07E1100EDB50F36E060EDB5026
:100F8000F35C21E0C70EE66E150EE66E5CEC01F038
:100F9000E552E552B60EE66E150EE66E8FEC01F0E8
:100FA000E552E552080EDB2A090E01E3DB2A1AECB2
:100FB00000F0080EDBCF14F0090EDBCF15F0D8904F
:100FC000155071E66CD0A70EE66E150EE66E5CEC61
:100FD00001F0E552E552960EE66E150EE66E8FECC8
:100FE00001F0E552E552010EF36E0A0EF3CFDBFF7E
:100FF0000B0EDB6A0A0EDBCFE9FF0B0EDBCFEAFF3D
:10100000030ED890E936EA36E806FBE1620EE926DF
:10101000000EEA22EF50660814E00A0EDBCF14F04F
:101020000B0EDBCF15F0D890155004E6050E145CBE
:10103000000E155806E20A0EDB2A0B0E01E3DB2A2E
:10104000D9D70A0EDBCFE9FF0B0EDBCFEAFF030E89
:10105000D890E936EA36E806FBE1620EE926000E92
:10106000EA22DFCFEEFF010EDBCFEEFF020EDBCF79
:10107000EEFF030EDBCFEEFF040EDBCFEEFF050E1F
:10108000DBCFEEFF060EDBCFEEFF070EDBCFEEFF72
:101090000001602B000E61231AEC00F006D0030E55
:1010A000145C000E155801E2BDD6080EDBCF14F01B
:1010B000090EDBCF15F0D890155004E6030E145C32
:1010C000000E155813E3850EE66E150EE66E5CEC09
:1010D00001F0E552E552740EE66E150EE66E8FECE9
:1010E00001F0E552E5521AEC00F000D0120EE15C7E
:1010F00002E2E16AE552E16EE552E7CFD9FF120064
:10110000D9CFE6FFE1CFD9FFE652630EE66E150EAA
:10111000E66E5CEC01F0E552E552520EE66E150EFD
:10112000E66E8FEC01F0E552E552C2EC01F0DF6EA5
:10113000310EDF5C06E0320EDF5C03E0330EDF5C75
:1011400005E1310EDF5C03E1CFDD07D0EED7320ED3
:10115000DF5C02E1ABDC01D000D0E552E552E7CF25
:10116000D9FF1200D9CFE6FFE1CFD9FF0D0EE1265E
:10117000260EE66E160EE66E5CEC01F0E552E552C8
:10118000E20EE66E150EE66E8FEC01F0E552E552CA
:10119000890EE66E91EC00F0E55280EC00F000095B
:1011A00001E0FBD7DE6ADD6ADECF14F0DDCF15F09B
:1011B000D890155004E6020E145C000E155821E27A
:1011C000C2EC01F0E76E040EE7CFDBFFDB5047080F
:1011D00017E0D950050F146EDACF15F0DE50142445
:1011E000E96EDD501520EA6E040EDBCFEFFFDBCF9A
:1011F000E6FFF6EC00F0E552DF2A010E01E3DB2A00
:10120000D3D7020EDB6A030EDB6A020EDBCF14F0CB
:10121000030EDBCF15F0D890155004E6050E145CD4
:10122000000E155835E2020EDBCFE9FF030EDBCFCF
:10123000EAFFD890E936EA36E806FBE1620EE926D5
:10124000000EEA22EF50F36E050EDB50F35C1AE15C
:10125000020EDBCFE9FF030EDBCFEAFFD890E936C1
:10126000EA36E806FBE1620EE926000EEA22010EEC
:10127000E926000EEA22EF50F36E060EDB50F35C17
:1012800001E106D0020EDB2A030E01E3DB2ABDD703
:10129000020EDBCFE9FF030EDBCFEAFFD890E93681
:1012A000EA36E806FBE1620EE926000EEA22EF507C
:1012B000F36E050EDB50F35C19E1020EDBCFE9FFA4
:1012C000030EDBCFEAFFD890E936EA36E806FBE109
:1012D000620EE926000EEA22010EE926000EEA223D
:1012E000EF50F36E060EDB50F35C0BE0410EE66E42
:1012F000150EE66E5CEC01F0E552E5521AEC00F0DA
:10130000F1D0C70EE66E91EC00F0E55280EC00F0F3
:10131000000901E0FBD7DE6ADD6ADECF14F0DDCF25
:1013200015F0D890155004E6040E145C000E155804
:1013300021E2C2EC01F0E76E040EE7CFDBFFDB50E9
:10134000470817E0D950080F146EDACF15F0DE50B9
:101350001424E96EDD501520EA6E040EDBCFEFFF9A
:101360002A0EE66EF6EC00F0E552DF2A010E01E3EC
:10137000DB2AD3D7020EDBCFE9FF030EDBCFEAFF78
:10138000D890E936EA36E806FBE1620EE926000E5F
:10139000EA22030EE926000EEA22EF50F36E080E51
:1013A000DB50F35C57E1020EDBCFE9FF030EDBCF2E
:1013B000EAFFD890E936EA36E806FBE1620EE92654
:1013C000000EEA22030EE926000EEA22010EE926AB
:1013D000000EEA22EF50F36E090EDB50F35C3AE1A7
:1013E000020EDBCFE9FF030EDBCFEAFFD890E93630
:1013F000EA36E806FBE1620EE926000EEA22030E59
:10140000E926000EEA22020EE926000EEA22EF503B
:10141000F36E0A0EDB50F35C1DE1020EDBCFE9FF39
:10142000030EDBCFEAFFD890E936EA36E806FBE1A7
:10143000620EE926000EEA22030EE926000EEA22D9
:10144000030EE926000EEA22EF50F36E0B0EDB507E
:10145000F35C0CE0310EE66E150EE66E5CEC01F00E
:10146000E552E5521AEC00F03DD03CD0050EDB50C1
:10147000390807E1060EDB50390803E141DE32D0BE
:101480002ED0080EDB6A200EE66E150EE66E5CECC2
:1014900001F0E552E552260EE66E160EE66EA1EC60
:1014A00002F0E552E552D950050FE66E000EDA2043
:1014B000E66EC3EC02F0E552E5520C0EE66E150E38
:1014C000E66EA1EC02F0E552E552E9EC03F00A0EFB
:1014D000E66E150EE66EA1EC02F0E552E5521AEC4E
:1014E00000F000D00D0EE15C02E2E16AE552E16E2F
:1014F000E552E7CFD9FF12007DEC02F0A3EC00F03B
:0A1500008AEC02F02FDEFED7120085
:06150A000D002C204163DE
:101510006573736F204C6962657261646F2E200081
:1015200020416573736F204C6962657261646F203E
:10153000002053656E686120496E76616C69646154
:10154000005573756172696F20496E76616C6964CC
:101550006F00332D5361697220202020202020202D
:10156000202000312D4E6F766F20322D4578636C30
:1015700075697200202020204465706F69732020F7
:10158000202020200054656E7465204E6F76616DBA
:10159000656E746520002020636F6D205375636550
:1015A00073736F202020005573756172696F20433B
:1015B000726961646F0020202020436F6E6665723F
:1015C000656D202020200020202053656E68617307
:1015D000206E616F20202000436F6E6669726D611E
:1015E000720053656E68613A20004E6F766F204935
:1015F000443A2000202020205573756172696F7372
:10160000202020200020202020204D6178696D6F4F
:101610002020202020002020204578636C756964FC
:101620006F21202020005573756172696F3A200088
:1016300020202043616E63656C616461212020205D
:1016400000202020204F7065726163616F002020B0
:10165000312D53696D20322D4E616F2020200045C1
:1016600078636C7569722049443A200049443A20F5
:10167000004578636C756972205573756172696F86
:02168000200048
:0E168200006A0EAE4AEF0BF00D6C0E1EE86A09
:101690000E22001E09AE52EF0BF0086C091EE86A1C
:1016A0000922001EFAEC0BF009BE62EF0BF000AE4F
:1016B000000C086C091EE86A0922046C051EE86A21
:1016C0000522000C00BE59EF0BF00188FF0C09C089
:1016D00013F008C012F008500D02F4CF07F0F3CF5A
:1016E00006F009500E02F4CF09F0F3CF08F00D0216
:1016F000F3500726F4500822E86A092212500E021D
:10170000F3500726F4500822E86A09220EAE8DEF46
:101710000BF01250085E1350095A13AE000C0D5016
:08172000085E0E50095A000C8E
:08172800060EF66E000EF76ECE
:10173000000EF86E00010900F550906F0900F55099
:10174000916F03E1906701D03DD00900F5508B6F98
:101750000900F5508C6F0900F5508D6F09000900E4
:10176000F550E96E0900F550EA6E0900090009001C
:10177000F5508E6F0900F5508F6F09000900F6CF04
:1017800092F0F7CF93F0F8CF94F08BC0F6FF8CC0B7
:10179000F7FF8DC0F8FF00018E5302E18F5307E081
:1017A0000900F550EE6E8E07F8E28F07F9D792C068
:1017B000F6FF93C0F7FF94C0F8FF00019007000EFA
:0617C000915BBFD712008F
:0A17C600FF0EE3501B6EEF0E01D082
:1017D000F30EE76EE72EEAEF0BF00C0E1A6EE76AD7
:1017E000E72EF0EF0BF01A2EEFEF0BF01B2EE8EFC9
:0417F0000BF01200E8
:0C17F400056A046A100EE76ED8900836F3
:101800000936043605360D50045C0E50055805E3C4
:101810000D50045E0E50055A082AE72EF0D712002C
:10182000000EF36E00EE00F0080E01D81200EA6020
:1018300002D0EE6AFCD7F350E9601200EE6AFCD7E2
:1018400013EE00F023EE00F0F86A019C94EC0BF02C
:0C18500030EC0CF07CEC0AF0FBD712002E
:04185C00F19E1200E7
:02186000120074
:0E18620001003939003939393900313100308F
:101870003030300066660066666666006666006642
:0D18800066666600666600666666660000C5
:020000040030CA
:010001000CF2
:010002001FDE
:010003001EDE
:0100050001F9
:010006008178
:00000001FF
