:020000040000FA
:060000008BEF09F0120075
:0A0006000100381300006000000044
:040010002B000000C1
:0C001400000000000000000000000000E0
:1000200000000000000000000000000000000000D0
:1000300000001200D9CFE6FFE1CFD9FF020EE12682
:10004000DE6ADD6ADECF10F0DDCF11F0D8901150FE
:1000500004E6640E105C000E11580AE2010EE66E12
:100060004EEC09F0E552DF2A010E01E3DB2AEAD764
:10007000020EE15C02E2E16AE552E16EE552E7CF91
:10008000D9FF1200C7DF8482C5DF84921200848406
:100090008490C0DF8482BEDF83AE05D084928494D6
:1000A000010E05D004D084928494000E00D012007A
:1000B000D9CFE6FFE1CFD9FF956AFE0EDB50836E04
:1000C00084908494DFDF8490A5DF9568E552E7CFC4
:1000D000D9FF1200D9CFE6FFE1CFD9FF090EE12603
:1000E000300EDF6EDE52DD6EF36E020EF3CFDBFFFD
:1000F000380EF36E030EF3CFDBFF0F0EF36E040E1C
:10010000F3CFDBFF060EF36E050EF3CFDBFF010E20
:10011000F36E060EF3CFDBFF8492849084940F0E6F
:10012000C16E966A956A070EDB6AF36EDBCFF4FF49
:10013000F350F45C17E2D9CF10F0DACF11F0070ECC
:10014000DB500F011024E96E000E1120EA6EEF5013
:10015000836E98DF010EE66E4EEC09F0E552070E55
:10016000DB2AE3D79568090EE15C02E2E16AE55219
:10017000E16EE552E7CFD9FF1200D9CFE6FFE1CF1C
:10018000D9FF956AFE0EDB50836E848084947ADFFB
:10019000849040DF9568E552E7CFD9FF1200D9CFB0
:1001A000E6FFE1CFD9FFFD0EDBCFE9FFFE0EDBCF8F
:1001B000EAFFEF5014E06BDF000901E0FCD7FD0E11
:1001C000DBCFE9FFFE0EDBCFEAFFEF50E66ED5DFB7
:1001D000E552FD0EDB2AFE0E01E3DB2AE4D757DFF2
:1001E000000901E0FCD700D0E552E7CFD9FF1200AB
:1001F000D9CFE6FFE1CFD9FFFD0EDBCFF6FFFE0E34
:10020000DBCFF7FF0800F55015E041DF000901E002
:10021000FCD7FD0EDBCFF6FFFE0EDBCFF7FF0800AD
:10022000F550E66EAADFE552FD0EDB2AFE0E01E375
:10023000DB2AE2D72CDF000901E0FCD700D0E55231
:10024000E7CFD9FF1200D9CFE6FFE1CFD9FF210ECA
:10025000E126800EE66E2CDFE55219DF000901E091
:10026000FCD7200EDB6AF36EDBCFF4FFF350F45CB7
:100270002EE2100EF36E200EDBCFF4FFF350F45C91
:1002800008E2E6687ADFE55202DF000901E0FCD708
:100290001BD0200EDB50100810E1C00EE66E08DF08
:1002A000E552F5DE000901E0FCD7E66866DFE552BD
:1002B000EEDE000901E0FCD707D0E6685EDFE5521C
:1002C000E6DE000901E0FCD7200EDB2ACCD7210EA8
:1002D000E15C02E2E16AE552E16EE552E7CFD9FF67
:1002E0001200F00E936E99EC09F0F70E816E00008B
:1002F00081B80CD000018A0503E1470EACD006D0CE
:10030000936A0001010E8A6F310EA5D081BA0CD01C
:1003100000018A0503E1470E9ED006D0936A0001D2
:10032000010E8A6F340E97D081BC0CD000018A0573
:1003300003E1470E90D006D0936A0001010E8A6F48
:10034000370E89D081BE0CD000018A0503E1470E2B
:1003500082D006D0936A0001010E8A6F2A0E7BD0EC
:10036000FB0E816E000081B80CD000018A0503E10C
:10037000470E71D006D0936A0001010E8A6F320ECB
:100380006AD081BA0CD000018A0503E1470E63D020
:1003900006D0936A0001010E8A6F350E5CD081BCD5
:1003A0000CD000018A0503E1470E55D006D0936AB0
:1003B0000001010E8A6F380E4ED081BE0CD00001B4
:1003C0008A0503E1470E47D006D0936A0001010E6B
:1003D0008A6F300E40D0FD0E816E000081B80CD0C7
:1003E00000018A0503E1470E36D006D0936A00016A
:1003F000010E8A6F330E2FD081BA0CD000018A050E
:1004000003E1470E28D006D0936A0001010E8A6FDF
:10041000360E21D081BC0CD000018A0503E1470EC5
:100420001AD006D0936A0001010E8A6F390E13D0DC
:1004300081BE0CD000018A0503E1470E0CD006D026
:10044000936A0001010E8A6F230E05D0936A0001A2
:100450008A6B470E00D01200926A936A946A956A7A
:10046000966A0F0EC16E806A816A826A836A846AA4
:100470001200948E948E240EAC6E900EAB6EB86A01
:10048000330EAF6E1200D9CFE6FFE1CFD9FFFE0EDB
:10049000DB50AD6EACB2FED7E552E7CFD9FF12000C
:1004A000D9CFE6FFE1CFD9FFFD0EDBCFF6FFFE0E81
:1004B000DBCFF7FF0800F55011E09EA8FED7FD0E38
:1004C000DBCFF6FFFE0EDBCFF7FF0800F550AD6E79
:1004D000FD0EDB2AFE0E01E3DB2AE6D7E552E7CF6D
:1004E000D9FF1200D9CFE6FFE1CFD9FFFD0EDBCF58
:1004F000E9FFFE0EDBCFEAFFEF5010E09EA8FED72B
:10050000FD0EDBCFE9FFFE0EDBCFEAFFEF50AD6E55
:10051000FD0EDB2AFE0E01E3DB2AE8D7E552E7CF2A
:10052000D9FF1200D9CFE6FFE1CFD9FF010EE66E69
:10053000BFDDE552ACDD000901E0FCD7FD0EDBCFED
:10054000F6FFFE0EDBCFF7FF0800F55015E09FDD4C
:10055000000901E0FCD7FD0EDBCFF6FFFE0EDBCF7E
:10056000F7FF0800F550E66E08DEE552FD0EDB2AC7
:10057000FE0E01E3DB2AE2D78ADD000901E0FCD7A9
:1005800000D0E552E7CFD9FF1200D9CFE6FFE1CF87
:10059000D9FFC00EE66E8CDDE55279DD000901E081
:1005A000FCD7FD0EDBCFF6FFFE0EDBCFF7FF08001A
:1005B000F55015E06CDD000901E0FCD7FD0EDBCF46
:1005C000F6FFFE0EDBCFF7FF0800F550E66ED5DD37
:1005D000E552FD0EDB2AFE0E01E3DB2AE2D757DDF2
:1005E000000901E0FCD700D0E552E7CFD9FF1200A7
:1005F000D9CFE6FFE1CFD9FF090EE126050EDB6A70
:10060000060EDB6A010EF36E070EF3CFDBFF080E5A
:10061000DB6AA10EE66E110EE66E84DFE552E5524E
:100620009C0EE66E110EE66EB0DFE552E552050E49
:10063000DBCF10F0060EDBCF11F0D890115004E69E
:10064000020E105C000E115821E24BDEE76E030E25
:10065000E7CFDBFFDB50470818E0D9CF10F0DACF47
:1006600011F0050EDB501024E96E060EDB50112050
:10067000EA6E030EDBCFEFFFDBCFE6FF7EDDE55258
:10068000050EDB2A060E01E3DB2AD1D7030EDB6A57
:100690008F0EE66E110EE66E45DFE552E552D9CFBC
:1006A000E6FFDACFE6FF7BDDE552E5527E0EE66E31
:1006B000110EE66E6ADFE552E55213DEE76E040EB8
:1006C000E7CFDBFFDB50310804E0040EDB503208DB
:1006D00014E1040EDB50320811E1710EE66E110ECA
:1006E000E66E20DFE552E552600EE66E110EE66E14
:1006F0004CDFE552E5529EDC82D0DFD7070EDBCF20
:1007000010F0080EDBCF11F0D890115004E6050E62
:10071000105C000E115834E2070EDBCFE9FF080E23
:10072000DBCFEAFF030ED890E936EA36E806FBE1B4
:10073000620EE926000EEA22EF50DF5C1BE1070E95
:10074000DBCFE9FF080EDBCFEAFF030ED890E936D6
:10075000EA36E806FBE1620EE926000EEA22010E07
:10076000E926000EEA22EF50F36E010EDB50F35C37
:1007700001E106D0070EDB2A080E01E3DB2ABED713
:10078000070EDBCFE9FF080EDBCFEAFF030ED890A0
:10079000E936EA36E806FBE1620EE926000EEA22B7
:1007A000660EEF6E070EDBCFE9FF080EDBCFEAFF28
:1007B000030ED890E936EA36E806FBE1620EE92638
:1007C000000EEA22010EE926000EEA22660EEF6E06
:1007D000560EE66E110EE66EA5DEE552E552D9CF55
:1007E000E6FFDACFE6FFDBDCE552E552460EE66EC9
:1007F000110EE66ECADEE552E5521CDC00D0090E91
:10080000E15C02E2E16AE552E16EE552E7CFD9FF31
:100810001200D9CFE6FFE1CFD9FF1D0EE126D95056
:100820000C0FE96EDACFEAFF300EEE6E310EEE6E8F
:10083000320EEE6E330EEE6E340EEE6E350EEE6E42
:10084000360EEE6E370EEE6E380EEE6E390EEE6E22
:10085000EE6A010EF36E0A0EF3CFDBFF0B0EDB6ABE
:100860000A0EDBCFE9FF0B0EDBCFEAFF030ED890B9
:10087000E936EA36E806FBE1620EE926000EEA22D6
:10088000EF50660814E00A0EDBCF10F00B0EDBCF42
:1008900011F0D890115004E6050E105C000E1158AE
:1008A00006E20A0EDB2A0B0E01E3DB2AD9D70A0E79
:1008B000DBCF10F00B0EDBCF11F0D890115004E617
:1008C000050E105C000E115811E3350EE66E110E88
:1008D000E66E28DEE552E552240EE66E110EE66E57
:1008E00054DEE552E5521AEC00F0A7D10A0E106E64
:1008F000116A60C008F061C009F010C00DF011C0AD
:100900000EF028EC09F0080E08C0DBFF090E09C044
:10091000DBFFD9500C0F106EDACF11F0080EDB5050
:100920001024E96E090EDB501120EA6EEFCFDFFFD5
:1009300060C010F061C011F00A0E0D6E0E6A10C09A
:1009400008F011C009F028EC09F004C010F005C04F
:1009500011F0080E10C0DBFF090E11C0DBFFD950EB
:100960000C0F106EDACF11F0080EDB501024E96E78
:10097000090EDB501120EA6E010EEFCFDBFF020EF5
:10098000DB6A080EDB6A090EDB6A1A0EE66E110ED0
:10099000E66EC8DDE552E552D9CFE6FFDACFE6FFD5
:1009A000CFEC00F0E552E552120EE66E110EE66E47
:1009B000ECDDE552E5520A0EDB6A0B0EDB6A0A0E2D
:1009C000DBCF10F00B0EDBCF11F0D890115004E606
:1009D000040E105C000E115823E283DCE76E170E44
:1009E000E7CFDBFFDB5047081AE0D950030F106E4A
:1009F000DACF11F00A0EDB501024E96E0B0EDB503B
:100A00001120EA6E170EDBCFEFFF2A0EE66EBDEC6B
:100A100000F0E5520A0EDB2A0B0E01E3DB2ACFD7EA
:100A2000080EE66E110EE66E7DDDE552E552120E01
:100A3000E66E110EE66EA9DDE552E5520A0EDB6A9E
:100A40000B0EDB6A0A0EDBCF10F00B0EDBCF11F0C2
:100A5000D890115004E6040E105C000E115823E2E9
:100A600040DCE76E170EE7CFDBFFDB5047081AE0EC
:100A7000D950180F106EDACF11F00A0EDB50102487
:100A8000E96E0B0EDB501120EA6E170EDBCFEFFF85
:100A90002A0EE66EBDEC00F0E5520A0EDB2A0B0EC4
:100AA00001E3DB2ACFD7180EDB50F36E030EDB50C9
:100AB000F35C15E1190EDB50F36E040EDB50F35CB2
:100AC0000EE11B0EDB50F36E050EDB50F35C07E10D
:100AD0001B0EDB50F36E060EDB50F35C1FE0F70ECF
:100AE000E66E100EE66E1EDDE552E552E60EE66E8F
:100AF000100EE66E4ADDE552E552080EDB2A090EBD
:100B000001E3DB2A1AEC00F0080EDBCF10F0090E2F
:100B1000DBCF11F0D89011506FE66AD0D70EE66E99
:100B2000100EE66EFFDCE552E552C60EE66E100EC4
:100B3000E66E2BDDE552E552010EF36E0A0EF3CFA1
:100B4000DBFF0B0EDB6A0A0EDBCFE9FF0B0EDBCF00
:100B5000EAFF030ED890E936EA36E806FBE1620EBA
:100B6000E926000EEA22EF50660814E00A0EDBCFF9
:100B700010F00B0EDBCF11F0D890115004E6050EEB
:100B8000105C000E115806E20A0EDB2A0B0E01E380
:100B9000DB2AD9D70A0EDBCFE9FF0B0EDBCFEAFF4A
:100BA000030ED890E936EA36E806FBE1620EE92644
:100BB000000EEA22DFCFEEFF010EDBCFEEFF020ECA
:100BC000DBCFEEFF030EDBCFEEFF040EDBCFEEFF3D
:100BD000050EDBCFEEFF060EDBCFEEFF070EDBCF01
:100BE000EEFF0001602B000E61231AEC00F006D02E
:100BF000030E105C000E115801E2C7D6080EDBCFC1
:100C000010F0090EDBCF11F0D890115004E6030E5E
:100C1000105C000E115811E3B50EE66E100EE66E74
:100C200081DCE552E552A40EE66E100EE66EADDCF8
:100C3000E552E5521AEC00F000D01D0EE15C02E234
:100C4000E16AE552E16EE552E7CFD9FF1200D9CF54
:100C5000E6FFE1CFD9FFE652930EE66E100EE66E88
:100C600061DCE552E552820EE66E100EE66E8DDC1A
:100C7000E552E55271EC01F0DF6E310EDF5C06E00B
:100C8000320EDF5C03E0330EDF5C05E1310EDF5C2A
:100C900003E1BFDD07D0EED7320EDF5C02E1A8DC56
:100CA00001D000D0E552E552E7CFD9FF1200D9CFED
:100CB000E6FFE1CFD9FF0D0EE126560EE66E110ECE
:100CC000E66E30DCE552E552120EE66E110EE66E6F
:100CD0005CDCE552E552890EE66E58EC00F0E55218
:100CE00047EC00F0000901E0FBD7DE6ADD6ADECFE9
:100CF00010F0DDCF11F0D890115004E6020E105C18
:100D0000000E115821E271EC01F0E76E040EE7CFFE
:100D1000DBFFDB50470817E0D950050F106EDACF24
:100D200011F0DE501024E96EDD501120EA6E040E41
:100D3000DBCFEFFFDBCFE6FFBDEC00F0E552DF2AB3
:100D4000010E01E3DB2AD3D7020EDB6A030EDB6A56
:100D5000020EDBCF10F0030EDBCF11F0D890115054
:100D600004E6050E105C000E115835E2020EDBCFD2
:100D7000E9FF030EDBCFEAFFD890E936EA36E80652
:100D8000FBE1620EE926000EEA22EF50F36E050E3B
:100D9000DB50F35C1AE1020EDBCFE9FF030EDBCF81
:100DA000EAFFD890E936EA36E806FBE1620EE9266A
:100DB000000EEA22010EE926000EEA22EF50F36E41
:100DC000060EDB50F35C01E106D0020EDB2A030EB7
:100DD00001E3DB2ABDD7020EDBCFE9FF030EDBCF39
:100DE000EAFFD890E936EA36E806FBE1620EE9262A
:100DF000000EEA22EF50F36E050EDB50F35C19E1B2
:100E0000020EDBCFE9FF030EDBCFEAFFD890E93615
:100E1000EA36E806FBE1620EE926000EEA22010E40
:100E2000E926000EEA22EF50F36E060EDB50F35C6B
:100E30000BE0710EE66E100EE66E92EC02F0E552DB
:100E4000E5521AEC00F0E7D0C70EE66E58EC00F061
:100E5000E55247EC00F0000901E0FBD7DE6ADD6AED
:100E6000DECF10F0DDCF11F0D890115004E6040E63
:100E7000105C000E115821E271EC01F0E76E040ED7
:100E8000E7CFDBFFDB50470817E0D950080F106EA3
:100E9000DACF11F0DE501024E96EDD501120EA6E39
:100EA000040EDBCFEFFF2A0EE66EBDEC00F0E5523C
:100EB000DF2A010E01E3DB2AD3D7020EDBCFE9FFE5
:100EC000030EDBCFEAFFD890E936EA36E806FBE10D
:100ED000620EE926000EEA22030EE926000EEA223F
:100EE000EF50F36E080EDB50F35C57E1020EDBCFE0
:100EF000E9FF030EDBCFEAFFD890E936EA36E806D1
:100F0000FBE1620EE926000EEA22030EE926000E3E
:100F1000EA22010EE926000EEA22EF50F36E090ED6
:100F2000DB50F35C3AE1020EDBCFE9FF030EDBCFCF
:100F3000EAFFD890E936EA36E806FBE1620EE926D8
:100F4000000EEA22030EE926000EEA22020EE9262E
:100F5000000EEA22EF50F36E0A0EDB50F35C1DE147
:100F6000020EDBCFE9FF030EDBCFEAFFD890E936B4
:100F7000EA36E806FBE1620EE926000EEA22030EDD
:100F8000E926000EEA22030EE926000EEA22EF50BF
:100F9000F36E0B0EDB50F35C0CE0610EE66E100E90
:100FA000E66E92EC02F0E552E5521AEC00F033D016
:100FB00032D0050EDB50390807E1060EDB50390848
:100FC00003E145DE28D024D0080EDB6A500EE66E21
:100FD000100EE66E92EC02F0E552E552560EE66E09
:100FE000110EE66E50EC02F0E552E552D950050FB5
:100FF000E66E000EDA20E66E72EC02F0E552E55283
:101000003C0EE66E100EE66E50EC02F0E552E55234
:101010001AEC00F000D00D0EE15C02E2E16AE5524C
:10102000E16EE552E7CFD9FF12002CEC02F06AEC3A
:0C10300000F039EC02F03BDEFED71200AD
:04103C002C204163C0
:101040006573736F204C6962657261646F2E0A006C
:1010500020416573736F204C6962657261646F2013
:10106000002053656E686120496E76616C69646129
:10107000005573756172696F20496E76616C6964A1
:101080006F00332D53616972202020202020202002
:10109000202000312D4E6F766F20322D4578636C05
:1010A00075697200202020204465706F69732020CC
:1010B000202020200054656E7465204E6F76616D8F
:1010C000656E746520002020636F6D205375636525
:1010D00073736F202020005573756172696F204310
:1010E000726961646F0020202020436F6E66657214
:1010F000656D202020200020202053656E686173DC
:10110000206E616F20202000436F6E6669726D61F2
:10111000720053656E68613A20004E6F766F204909
:10112000443A2000202020205573756172696F7346
:10113000202020200020202020204D6178696D6F24
:101140002020202020002020204578636C756964D1
:101150006F21202020005573756172696F3A20005D
:1011600020202043616E63656C6164612120202032
:1011700000202020204F7065726163616F00202085
:10118000312D53696D20322D4E616F202020004596
:1011900078636C7569722049443A200049443A20CA
:1011A000004578636C756972205573756172696F5B
:0211B00020001D
:0E11B200060EF66E000EF76E000EF86E0001CF
:1011C0000900F550906F0900F550916F03E19067A9
:1011D00001D03DD00900F5508B6F0900F5508C6FA0
:1011E0000900F5508D6F09000900F550E96E0900FE
:1011F000F550EA6E090009000900F5508E6F0900EC
:10120000F5508F6F09000900F6CF92F0F7CF93F0F9
:10121000F8CF94F08BC0F6FF8CC0F7FF8DC0F8FFBD
:1012200000018E5302E18F5307E00900F550EE6E86
:101230008E07F8E28F07F9D792C0F6FF93C0F7FF49
:1012400094C0F8FF00019007000E915BBFD7120019
:10125000006A0EAE31EF09F00D6C0E1EE86A0E2228
:10126000001E09AE39EF09F0086C091EE86A092270
:10127000001E65EC09F009BE49EF09F000AE000C54
:10128000086C091EE86A0922046C051EE86A05223A
:0C129000000C00BE40EF09F00188FF0CCC
:04129C00FF0EE3500E
:1012A000136EEF0E01D0F30EE76EE72E55EF09F047
:1012B0000C0E126EE76AE72E5BEF09F0122E5AEF62
:0A12C00009F0132E53EF09F012009D
:0612CA00056A046A100E23
:1012D000E76ED89008360936043605360D50045CA2
:1012E0000E50055805E30D50045E0E50055A082AAD
:0612F000E72EF0D712000A
:0A12F600000EF36E00EE00F0080E8B
:1013000001D81200EA6002D0EE6AFCD7F350E9601F
:061310001200EE6AFCD79A
:0A13160013EE00F023EE00F0F86A79
:10132000019CD9EC08F09BEC09F015EC08F0FBD718
:021330001200A9
:04133200F19E120016
:021336001200A3
:0813380001003939003939398F
:101340003900313100303030300066660066666644
:1013500066006666006666666600666600666666C5
:0313600066000024
:020000040030CA
:010001000CF2
:010002001FDE
:010003001EDE
:0100050001F9
:010006008178
:00000001FF
