:020000040000FA
:060000002AEF03F01200DC
:0A0006000100760600006A00000009
:0400100001000000EB
:0C001400000000000000000000000000E0
:1000200000000000000000000000000000000000D0
:1000300000001200EFDF8482EDDF849212008484DE
:100040008490E8DF8482E6DF83AE05D084928494D6
:10005000010E05D004D084928494000E00D01200CA
:10006000D9CFE6FFE1CFD9FF956AFE0EDB50836E54
:1000700084908494DFDF8490CDDF9568E552E7CFEC
:10008000D9FF1200D9CFE6FFE1CFD9FF050EE12657
:100090000F0EDF6EDE52060EDD6E010EF36E020EE7
:1000A000F3CFDBFF8492849084940F0EC16E966A26
:1000B000956A030EDB6AF36EDBCFF4FFF350F45C5A
:1000C0000BE2300E836EB6DF010EE66E03EC03F03A
:1000D000E552030EDB2AEFD7380E836EABDF010E3D
:1000E000E66E03EC03F0E552030EDB6AF36EDBCF42
:1000F000F4FFF350F45C17E2D9CF02F0DACF03F04B
:10010000030EDB500F010224E96E000E0320EA6E9D
:10011000EF50836E8FDF010EE66E03EC03F0E552C5
:10012000030EDB2AE3D79568050EE15C02E2E16A83
:10013000E552E16EE552E7CFD9FF1200D9CFE6FFD5
:10014000E1CFD9FF956AFE0EDB50836E84808494E4
:1001500071DF84905FDF9568E552E7CFD9FF120029
:10016000D9CFE6FFE1CFD9FFFD0EDBCFE9FFFE0ED1
:10017000DBCFEAFFEF5014E062DF000901E0FCD7BB
:10018000FD0EDBCFE9FFFE0EDBCFEAFFEF50E66EA0
:10019000D5DFE552FD0EDB2AFE0E01E3DB2AE4D7B4
:1001A00000D0E552E7CFD9FF1200D9CFE6FFE1CF6B
:1001B000D9FF210EE126800EE66E52DFE5523FDFC9
:1001C000000901E0FCD7200EDB6AF36EDBCFF4FF01
:1001D000F350F45C2EE2100EF36E200EDBCFF4FF32
:1001E000F350F45C08E2E668A9DFE55228DF000975
:1001F00001E0FCD71BD0200EDB50100810E1C00E30
:10020000E66E2EDFE5521BDF000901E0FCD7E66851
:1002100095DFE55214DF000901E0FCD707D0E6685E
:100220008DDFE5520CDF000901E0FCD7200EDB2A50
:10023000CCD7210EE15C02E2E16AE552E16EE552C3
:10024000E7CFD9FF1200F00E936E38EC03F0F70EF3
:10025000816E000081B80CD000016A0503E1470EF1
:10026000ACD006D0936A0001010E6A6F310EA5D0A2
:1002700081BA0CD000016A0503E1470E9ED006D07A
:10028000936A0001010E6A6F340E97D081BC0CD0C6
:1002900000016A0503E1470E90D006D0936A000181
:1002A000010E6A6F370E89D081BE0CD000016A053D
:1002B00003E1470E82D006D0936A0001010E6A6FF7
:1002C0002A0E7BD0FB0E816E000081B80CD000019D
:1002D0006A0503E1470E71D006D0936A0001010E52
:1002E0006A6F320E6AD081BA0CD000016A0503E150
:1002F000470E63D006D0936A0001010E6A6F350E77
:100300005CD081BC0CD000016A0503E1470E55D0DA
:1003100006D0936A0001010E6A6F380E4ED081BE7E
:100320000CD000016A0503E1470E47D006D0936A5E
:100330000001010E6A6F300E40D0FD0E816E00008C
:1003400081B80CD000016A0503E1470E36D006D013
:10035000936A0001010E6A6F330E2FD081BA0CD060
:1003600000016A0503E1470E28D006D0936A000118
:10037000010E6A6F360E21D081BC0CD000016A05D7
:1003800003E1470E1AD006D0936A0001010E6A6F8E
:10039000390E13D081BE0CD000016A0503E1470E6F
:1003A0000CD006D0936A0001010E6A6F230E05D0AF
:1003B000936A00016A6B470E00D01200926A936A3A
:1003C000946A956A966A0F0EC16E806A816A826A23
:1003D000836A846A1200D9CFE6FFE1CFD9FF150EF8
:1003E000E126D9CFE9FFDACFEAFF550EEE6E730EA4
:1003F000EE6E750EEE6EE10EEE6E720EEE6E690E24
:10040000EE6E6F0EEE6E3A0EEE6E200EEE6E090E72
:10041000DB6A0A0EDB6AD9500B0FE96EDACFEAFF0E
:10042000530EEE6E650EEE6E6E0EEE6E680EEE6E96
:10043000610EEE6E3A0EEE6E200EEE6E130EDB6A5D
:10044000140EDB6ABBDF1EDE010EE66E09DEE5522E
:10045000F6DD000901E0FCD7D9CFE6FFDACFE6FFF1
:100460007FDEE552E552EBDD000901E0FCD7C00E6E
:10047000E66EF6DDE552E3DD000901E0FCD7D95078
:100480000B0FE66E000EDA20E66E6ADEE552E552EC
:10049000D6DD000901E0FCD7890EE66EE1DDE5520C
:1004A000CEDD000901E0FCD7130EDBCF02F0140E05
:1004B000DBCF03F0D890035004E6030E025C000E7D
:1004C000035813E2C0DEE76E120EE7CFDBFFDB500E
:1004D00047080AE0120EDBCFE6FF30DEE552130ECE
:1004E000DB2A140E01E3DB2ADFD7C70EE66EB8DD88
:1004F000E552A5DD000901E0FCD7130EDB6A140EFE
:10050000DB6A130EDBCF02F0140EDBCF03F0D890C2
:10051000035004E6040E025C000E035812E293DE60
:10052000E76E120EE7CFDBFFDB50470809E02A0E2B
:10053000E66E04DEE552130EDB2A140E01E3DB2A1D
:10054000E0D7800EE66E8CDDE55279DD000901E032
:10055000FCD7FFD7150EE15C02E2E16AE552E16EDD
:08056000E552E7CFD9FF1200BC
:08056800060EF66E000EF76EA0
:10057000000EF86E00010900F550656F0900F55096
:10058000666F03E1656701D03DD00900F550606FEB
:100590000900F550616F0900F550626F090009000C
:1005A000F550E96E0900F550EA6E090009000900EE
:1005B000F550636F0900F550646F09000900F6CF2C
:1005C00067F0F7CF68F0F8CF69F060C0F6FF61C060
:1005D000F7FF62C0F8FF0001635302E1645307E0D4
:1005E0000900F550EE6E6307F8E26407F9D767C0BB
:1005F000F6FF68C0F7FF69C0F8FF00016507000E4D
:06060000665BBFD712008B
:0A060600FF0EE350056EEF0E01D069
:10061000F30EE76EE72E0AEF03F00C0E046EE76AA6
:10062000E72E10EF03F0042E0FEF03F0052E08EF76
:0406300003F01200C1
:0C063400000EF36E00EE00F0080E01D87E
:100640001200EA6002D0EE6AFCD7F350E9601200B3
:04065000EE6AFCD77B
:0C06540013EE00F023EE00F0F86A019CA9
:10066000B4EC02F03AEC03F0EBEC01F0FBD7120033
:04067000F19E1200E5
:02067400120072
:010676000083
:020000040030CA
:010001000CF2
:010002001FDE
:010003001EDE
:0100050001F9
:010006008178
:00000001FF
